:0E082200CEF85EFC5EF41090A5F200811090FE
:10083000F3E70EC901701CC9027002C800F0440938
:10084000037002C800F0E409047002C800F0380A1E
:100850001290F0E709C905F400E01390F0E7109258
:10086000F2E71290EEE743F001E01EF41EFC8EF278
:1008700010800420047017C800001190F3E70200F4
:100880001190F2E700001190A3F21290F0E709C96D
:1008900005F400E01390F0E71092F2E71290EEE713
:1008A00043F001E0E2CE1080022002700AC800008E
:1008B0001190F3E701001190F2E702001190A3F20A
:1008C0003ECE1290E8E715C902001190F3E7129CA2
:1008D000E6E7C0901190A2F2C5F081E01390E6E740
:1008E0001290E8E7FFE01390E8E701001190A3F20F
:1008F00026CE1090E4E70FC904001190F3E701043D
:100900001290ECE7FFE01292EEE727F001C88104B5
:100910001194A3F214CE03001190F3E7129CEAE7BE
:10092000C0901190A2F2C5F081E01390EAE7129016
:10093000EEE781E01390EEE701001190A3F200E0F2
:1009400000F06A081080022002700BC800001190AD
:10095000F3E701001190F2E702001190A3F200F01A
:10096000DE091290E8E712C9129CE6E7C0901190E8
:10097000A2F2C5F081E01390E6E71290E8E7FFE00D
:100980001390E8E701001190A3F229CE1290ECE752
:1009900007C800001190F3E702001190A3F21FCEE8
:1009A0001090E4E708C901001190F3E780A0A1F2DC
:1009B000A0A0A3F214CE03001190F3E7129CEAE783
:1009C000C0901190A2F2C5F081E01390EAE7129076
:1009D000EEE781E01390EEE701001190A3F200E052
:1009E00000F06A0810800220027008C80000119010
:1009F000F3E701001190F2E7020019CE1290ECE744
:100A00001292EEE727F00FC9129CEAE7C09011900E
:100A1000A2F2C5F081E01390EAE725F081E013909F
:100A2000EEE7010004CE00001190F3E70200119000
:0C0A3000A3F200E000F06A08129CEAE764
:040A3C001090A0F284
:100A4000C1901290EAE781E01390EAE71290EEE796
:100A500081E01390EEE71290ECE71292EEE727F0B8
:100A600008C90104FFE027F001C881041194A3F232
:100A700006CE00001190F3E702001190A3F200E00F
:040A800000F06A0810
:08007800000000000000000080
:08008000000000000000000078
:0C0624005EF40000119011F0119012F033
:10063000119013F0119014F0119015F0119016F024
:10064000119017F0119018F0119019F011901AF004
:1006500011901BF011901CF011901DF011901EF0E4
:1006600011901FF000E445F046F04A02040309A28D
:0E067000A4E781E41F740055F6C51EF41FFEBA
:04042A0008ED1FFEBC
:04042600F7EB1FFED3
:0C0334006EF8008825FA1F7003C17FE0FE
:100340002EF81FFE25F206C98080000106F009AADA
:10035000A4E707CE8080000106F04A02040309A248
:06036000A4E700E0EDCE71
:020006000FFEEB
:02044A001FFE93
:0A060400000106F008A0A4E702F0D0
:0A0B5600CEFF6EF0109000F04EF09C
:100B6000000001F004060EF0119000F02EF08EFF50
:0C0AF400CEF96EF0109000F04EF0010002
:100B000001F004060EF0119000F02EF08EF90FFEA9
:0601EA00CEF96EF010904A
:1001F00000F04EF0020001F004060EF0119000F045
:060200002EF08EF90FFE46
:0A020600CEF96EF0109000F04EF0FB
:10021000030001F004060EF0119000F02EF08EF9AC
:020220000FFECF
:040ABC00CEF96EF011
:100AC000109000F04EF0040001F004060EF01190BA
:080AD00000F02EF08EF90FFE7C
:0800B800CEF96EF0109000F08B
:1000C0004EF0050001F004060EF0119000F02EF045
:0400D0008EF90FFE98
:0C00D400CEF96EF0109000F04EF0060027
:1000E00001F004060EF0119000F02EF08EF90FFED4
:0C0A8400CEF96EF0109000F04EF007006C
:100A900001F004060EF0119000F02EF08EF90FFE1A
:100AA000CEF96EF0109000F04EF0080001F0040650
:0C0AB0000EF0119000F02EF08EF90FFEF9
:0C0BC400CEF96EF0109000F04EF0090029
:100BD00001F004060EF0119000F02EF08EF90FFED9
:020B1E00CEF90E
:100B20006EF0109000F04EF00A0001F004060EF096
:0A0B3000119000F02EF08EF90FFE78
:080BA800CEF96EF0109000F090
:100BB0004EF00B0001F004060EF0119000F02EF044
:040BC0008EF90FFE9D
:100C7000CEF96EF0109000F04EF00C0001F004067A
:0C0C80000EF0119000F02EF08EF90FFE27
:0C027400CEF96EF0109000F04EF00D007E
:1002800001F004060EF0119000F02EF08EF90FFE32
:10029000CEF96EF0109000F04EF00E0001F0040662
:0C02A0000EF0119000F02EF08EF90FFE11
:0C02E400CEF96EF0109000F04EF00F000C
:1002F00001F004060EF0119000F02EF08EF90FFEC2
:10030000CEF96EF0109000F04EF0100001F00406EF
:0C0310000EF0119000F02EF08EF90FFEA0
:0A024600CEF96EF0109000F04EF0BB
:10025000110001F004060EF0119000F02EF08EF95E
:020260000FFE8F
:0E022200CEF96EF0109000F04EF0120001F0D8
:0E02300004060EF0119000F02EF08EF90FFE75
:0402AC00CEF96EF029
:1002B000109000F04EF0130001F004060EF01190C3
:0802C00000F02EF08EF90FFE94
:100B7000CEF96EF0109000F04EF0140001F0040673
:0C0B80000EF0119000F02EF08EF90FFE28
:0802C800CEF96EF0109000F079
:1002D0004EF0150001F004060EF0119000F02EF023
:0402E0008EF90FFE86
:040B8C00CEF96EF040
:100B9000109000F04EF0160001F004060EF01190D7
:080BA00000F02EF08EF90FFEAB
:1005B000CEF96EF0109000F04EF0170001F0040636
:0C05C0000EF0119000F02EF08EF90FFEEE
:10051000CEF96EF0109000F04EF0180001F00406D5
:0C0520000EF0119000F02EF08EF90FFE8E
:04052C00CEF96EF0A6
:10053000109000F04EF0190001F004060EF011903A
:0805400000F02EF08EF90FFE11
:08054800CEF96EF0109000F0F6
:100550004EF01A0001F004060EF0119000F02EF09B
:040560008EF90FFE03
:060B3A00CEF96EF01090F0
:100B400000F04EF01B0001F004060EF0119000F0D2
:060B50002EF08EF90FFEED
:080AD800CEF96EF0109000F061
:100AE0004EF01C0001F004060EF0119000F02EF004
:040AF0008EF90FFE6E
:04009C00CEF96EF03B
:1000A000109000F04EF01D0001F004060EF01190CB
:0800B00000F02EF08EF90FFEA6
:02042E00CEF905
:100430006EF0109000F04EF01E0001F004060EF079
:0A044000119000F02EF08EF90FFE6F
:02000800560B95
:04000C00F40A0600EC
:10001000EA010602BC0A0600B800D400840AA00A5D
:10002000C40B06001E0B060006000600A80B700C91
:100030000600060074029002060006000600060094
:10004000E402000306000600060006004602220243
:100050000600060006000600AC02700BC8028C0BFE
:10006000B00510052C05480506003A0B0600D80A15
:080070009C00060006002E04AE
:02060E0001F0F9
:10061000E20601F01C03E800030101F0660301F0AB
:040620001C03FDCEEC
:04031C00F7EB5A00A1
:1003200011900EF081A00EF0FAC9A50011900EF008
:0403300008ED1FFEB7
:0E06E200CEF880A02AF0A2A02AF0B0A02AF044
:1006F000E0A02AF0F2A02AF0FF0011902CF00000F8
:1007000011902EF0FF0011902FF001F0100B01F06E
:10071000640501F04C0401F07E06C0A059F2C2A0AD
:100720005BF2C2A05AF2C2A05DF2C2A05CF2B0A01D
:1007300059F2B2A05BF2B2A05AF2B2A05DF2B2A03E
:100740005CF2A0A051F2A2A053F2A2A052F2A2A089
:1007500055F2A2A054F290A051F292A053F292A0AE
:1007600052F292A055F292A054F280A051F282A0CF
:1007700053F282A052F282A055F282A054F201F00C
:10078000260401F024060000119017F0119016F0D5
:10079000119015F0119014F0119013F0119012F0C7
:1007A000119011F0119010F011901FF011901EF0A7
:1007B00011901DF011901CF011901BF011901AF087
:1007C000119019F0119018F0B2A017F06202020314
:1007D0000F0001F0340380A014F0160208030C008F
:1007E00001F03403F0A012F0F2A01AF00E02080398
:1007F0000A0001F03403A0A012F0A2A01AF001F048
:0E0800002A04030011900FF001F01C038EF289
:0E0B10000000119002F090A003F008ED1FFE0F
:0C05640082A051F292A051F2A2A051F22C
:1005700080A053F280A052F290A053F290A052F2C9
:10058000A0A053F2A0A052F282A055F282A054F291
:1005900092A055F292A054F2A2A055F2A2A054F259
:1005A00082A050F292A050F2A2A050F200F01C03E0
:04044C0082A059F23F
:1004500092A059F2A2A059F2B2A059F2C2A059F248
:10046000D2A059F2E2A059F2F2A059F280A05BF2B8
:1004700080A05AF290A05BF290A05AF2A0A05BF28A
:10048000A0A05AF2B0A05BF2B0A05AF2C0A05BF2FA
:10049000C0A05AF2D0A05BF2D0A05AF2E0A05BF26A
:1004A000E0A05AF2F0A05BF2F0A05AF282A05DF256
:1004B00082A05CF292A05DF292A05CF2A2A05DF23A
:1004C000A2A05CF2B2A05DF2B2A05CF2C2A05DF2AA
:1004D000C2A05CF2D2A05DF2D2A05CF2E2A05DF21A
:1004E000E2A05CF2F2A05DF2F2A05CF282A058F20F
:1004F00092A058F2A2A058F2B2A058F2C2A058F2AC
:10050000D2A058F2E2A058F2F2A058F200F01C0378
:02067E0082A058
:1006800061F292A061F2A2A061F2B2A061F280A038
:1006900063F280A062F290A063F290A062F2A0A048
:1006A00063F2A0A062F2B0A063F2B0A062F282A0F6
:1006B00065F282A064F292A065F292A064F2A2A018
:1006C00065F2A2A064F2B2A065F2B2A064F282A0C8
:1006D00060F292A060F2A2A060F2B2A060F200F01C
:0206E0001C03F9
:0A036600CEF86EF45EFC5EF805F8B8
:1003700005F40006010001F0CC0580A0EAF892A087
:10038000EAF8FF001190E8F81190ECF885F0807819
:10039000005907C07B917A902B912A90888099818F
:1003A00005FC8078005902C87FEC0006807800596F
:1003B00015C304CE8010FF6105F4011645F080746A
:1003C0000055F8C245F408C97B917A902B912A9088
:1003D0004880598105FC02CE7FECFF1601F01C031A
:1003E00000001190E9F880A0EBF81090E9F8000106
:1003F00005F21090EDF8038325F008CE1090E9F88F
:10040000000105F21090EDF8038325F0C7F0F6C166
:10041000007605C982A0EBF8FF167FECDFCE1EF850
:060420001EFC2EF48EF21A
:0A081600CEF801F0220801F03E02C6
:020820008EF256
:02080E000100E7
:060810001190E2E71FFE5B
:02023E000100BD
:060240001190E3E71FFE30
:0402620000F0F000B8
:02000200E00B11
:02000000A2E775
:02000400E20B0D
:100BE00001CEFFCE00E000E200E400E60008E009EC
:100BF0008AF0579088E8E879FCC10078FAC15A0C6D
:100C0000A50D119C0EF081A00EF0FBC9119D0EF0F8
:100C1000000A0CF09200AF905290FF7002C8FF7172
:100C200020C9AF905292AF905294AF905096AF902F
:100C3000509780E4F0C901A20BC801A409C86F90C5
:100C4000029882E07F90239882E2FEE4F8C8E3CE27
:100C50006F90009881E07F90219881E2FFE4F8C8CE
:100C6000DACE01F00A000000119000F000F00E064C
:02000A001FFED7
:080092007800E4E71A00000009
:02009A00FFFF66
:105FE000FFFFFFFFFFFFFFFFFFFFFFFFFFFFFFFFC1
:105FF000FFFFFFFFFFFFFFFFFFFFFFFFFFFFFFFFB1
:0405CC00007005C9ED
:1005D00001700AC902700FC91FFE82A0E3F882A051
:1005E000E7F8D0A0E2F81FFE82A0EBF882A0EFF8B7
:1005F000D0A0EAF81FFE82A063F382A06BF3A0A054
:0406000062F31FFE84
:1000F000CEF85EFC109092F20120007035C812908C
:10010000F6E71292F8E727F019C9109096F2082046
:10011000007012C8129CF4E7C090119090F2C5F0E4
:1001200081E01390F4E725F081E01390F8E780A0D8
:1001300091F200E01EFC8EF27FE0FCCE109091F276
:10014000012000700FC81290FAE70AC91092FCE76C
:100150001290F6E7129CFAE7C3F000E01390FAE77A
:1001600001E0E8CE7EE0E6CE1290F6E71292F8E7E4
:1001700027F02CC9109096F2072000821090FCE71F
:1001800023801190FCE782A096F292A096F2A2A0A2
:1001900096F2129CF4E7109090F2C1901290F4E75E
:1001A00081E01390F4E71290F8E781E01390F8E70C
:1001B00001A209C81290F6E71292F8E727F006C9E3
:1001C00000E000F03401010001F066021290FAE74D
:1001D00009C905FC00E01390FAE71092FCE71290C1
:0A01E000F6E7C3F001E000F034017F
:0A02660000821090A2E7238011909F
:04027000A2E71FFEE4
:08008800000000000000000070
:0200900000006E
:00000001FF
