:0E0A8200CEF85EFE1AAEFAE15EFC5EF4109055
:100A9000A5F2FFD01090F3E70EC901701FC90270D4
:100AA00002C800F0AC0B037002C800F04C0C0470DC
:100AB00002C800F0A00C1290F0E70AC9FCB000E0F8
:100AC0001390F0E71092F2E71290EEE77CB443F057
:100AD00001E01EF41EFCEAA11EFE8EF27FD004206F
:100AE000047018C800001190F3E702001190F2E7BB
:100AF00000001190A3F21290F0E70AC9FCB000E0E8
:100B00001390F0E71092F2E71290EEE77CB443F016
:100B100001E0DFCE7FD00220027008C800001190F3
:100B2000F3E701001190F2E702003BCE1290E8E7F4
:100B300013C902001190F3E7129CE6E7C0901190F0
:100B4000A2F2C5F081E01390E6E71290E8E7FFE03B
:100B50001390E8E7010025CE1090E4E710C90400E7
:100B60001190F3E70100FBD01290ECE7FFE0129246
:100B7000EEE727F002C88100FBD07BD012CE030045
:100B80001190F3E7129CEAE7C0901190A2F2C5F031
:100B900081E01390EAE71290EEE781E01390EEE730
:100BA00001001190A3F200E000F0D20A7FD00220F1
:100BB00002700BC800001190F3E701001190F2E7FA
:100BC00002001190A3F200F0460C1290E8E712C95F
:100BD000129CE6E7C0901190A2F2C5F081E013905C
:100BE000E6E71290E8E7FFE01390E8E701001190D4
:100BF000A3F229CE1290ECE707C800001190F3E7AA
:100C000002001190A3F21FCE1090E4E708C9010082
:100C10001190F3E780A0A1F2A0A0A3F214CE0300EC
:100C20001190F3E7129CEAE7C0901190A2F2C5F090
:100C300081E01390EAE71290EEE781E01390EEE78F
:100C400001001190A3F200E000F0D20A7FD0022050
:100C5000027008C800001190F3E701001190F2E75C
:100C6000020019CE1290ECE71292EEE727F00FC9BE
:100C7000129CEAE7C0901190A2F2C5F081E01390B7
:100C8000EAE725F081E01390EEE7010004CE0000D2
:100C90001190F3E702001190A3F200E000F0D20AF5
:040CA000129CEAE7D1
:0C0CA4001090A0F2C1901290EAE781E0ED
:100CB0001390EAE71290EEE781E01390EEE71290CE
:100CC000ECE71292EEE727F00BC90100FBD012907F
:100CD000ECE7FFE027F002C88100FBD07BD004CE18
:100CE00000001190F3E702001190A3F200E000F081
:020CF000D20A26
:08007800000000000000000080
:08008000000000000000000078
:0403C60008ED1FFE21
:0403C200F7EB1FFE38
:04037C006EF800888F
:1003800025FA1F7003C17FE02EF81FFE25F206C973
:100390008080000106F009AAA4E707CE8080000152
:0E03A00006F0EE02030309A2A4E700E0EDCE92
:02000A000FFEE7
:0203EE001FFEF0
:04076C00000106F092
:0607700008A0A4E702F05E
:0A0DD600CEFF6EF0109000F04EF01A
:100DE000000001F06C070EF0119000F02EF08EFF65
:0E0D6200CEF96EF0109000F04EF0010001F09E
:0E0D70006C070EF0119000F02EF08EF90FFEC1
:0C023400CEF96EF0109000F04EF00200C9
:1002400001F06C070EF0119000F02EF08EF90FFE09
:10025000CEF96EF0109000F04EF0030001F06C0744
:0C0260000EF0119000F02EF08EF90FFE51
:060D2A00CEF96EF01090FE
:100D300000F04EF0040001F06C070EF0119000F08E
:060D40002EF08EF90FFEFB
:0400EC00CEF96EF0EB
:1000F000109000F04EF0050001F06C070EF011902A
:0801000000F02EF08EF90FFE55
:08010800CEF96EF0109000F03A
:100110004EF0060001F06C070EF0119000F02EF08A
:040120008EF90FFE47
:0E0CF200CEF96EF0109000F04EF0070001F009
:0E0D00006C070EF0119000F02EF08EF90FFE31
:020D0E00CEF91C
:100D10006EF0109000F04EF0080001F06C070EF03D
:0A0D2000119000F02EF08EF90FFE86
:0C0E4400CEF96EF0109000F04EF00900A6
:100E500001F06C070EF0119000F02EF08EF90FFEED
:020D9E00CEF98C
:100DA0006EF0109000F04EF00A0001F06C070EF0AB
:0A0DB000119000F02EF08EF90FFEF6
:080E2800CEF96EF0109000F00D
:100E30004EF00B0001F06C070EF0119000F02EF058
:040E40008EF90FFE1A
:020F1E00CEF90A
:100F20006EF0109000F04EF00C0001F06C070EF027
:0A0F3000119000F02EF08EF90FFE74
:1002C000CEF96EF0109000F04EF00D0001F06C07CA
:0C02D0000EF0119000F02EF08EF90FFEE1
:0402DC00CEF96EF0F9
:1002E000109000F04EF00E0001F06C070EF011902F
:0802F00000F02EF08EF90FFE64
:10033000CEF96EF0109000F04EF00F0001F06C0757
:0C0340000EF0119000F02EF08EF90FFE70
:04034C00CEF96EF088
:10035000109000F04EF0100001F06C070EF01190BC
:0803600000F02EF08EF90FFEF3
:10029000CEF96EF0109000F04EF0110001F06C07F6
:0C02A0000EF0119000F02EF08EF90FFE11
:04026C00CEF96EF069
:10027000109000F04EF0120001F06C070EF011909B
:0802800000F02EF08EF90FFED4
:0802F800CEF96EF0109000F049
:100300004EF0130001F06C070EF0119000F02EF08B
:040310008EF90FFE55
:100DF000CEF96EF0109000F04EF0140001F06C0788
:0C0E00000EF0119000F02EF08EF90FFEA5
:0C031400CEF96EF0109000F04EF01500D5
:1003200001F06C070EF0119000F02EF08EF90FFE28
:040E0C00CEF96EF0BD
:100E1000109000F04EF0160001F06C070EF01190EB
:080E200000F02EF08EF90FFE28
:0806F800CEF96EF0109000F045
:100700004EF0170001F06C070EF0119000F02EF083
:040710008EF90FFE51
:08065800CEF96EF0109000F0E5
:100660004EF0180001F06C070EF0119000F02EF023
:040670008EF90FFEF2
:0C067400CEF96EF0109000F04EF019006E
:1006800001F06C070EF0119000F02EF08EF90FFEC5
:10069000CEF96EF0109000F04EF01A0001F06C07E9
:0C06A0000EF0119000F02EF08EF90FFE0D
:060DBA00CEF96EF010906E
:100DC00000F04EF01B0001F06C070EF0119000F0E7
:060DD0002EF08EF90FFE6B
:0A0D4600CEF96EF0109000F04EF0B0
:100D50001C0001F06C070EF0119000F02EF08EF9DF
:020D60000FFE84
:1000D000CEF96EF0109000F04EF01D0001F06C07AC
:0C00E0000EF0119000F02EF08EF90FFED3
:0E03D200CEF96EF0109000F04EF01E0001F01B
:0E03E0006C070EF0119000F02EF08EF90FFE5B
:02000800D60D13
:04000C00620D0A0077
:10001000340250022A0D0A00EC000801F20C0E0D09
:10002000440E0A009E0D0A000A000A00280E1E0F48
:100030000A000A00C002DC020A000A000A000A00E4
:1000400030034C030A000A000A000A0090026C0206
:100050000A000A000A000A00F802F00D14030C0E50
:10006000F8065806740690060A00BA0D0A00460DF6
:08007000D0000A000A00D203CF
:0A07760001F0060801F0840701F00D
:040780006803FBCE41
:080368005A0011900EF081A073
:0C0370000EF0FAC9A50011900EF01FFE5F
:0A080600CEF880A02AF0A2A02AF08C
:10081000B0A02AF0E0A02AF0F2A02AF00000119087
:100820002CF011902EF011902FF001F0AC0601F099
:10083000800501F0A20701F07E0D01F0C203000067
:10084000119017F0119016F0119015F0119014F00E
:10085000119013F0119012F0119011F0119010F00E
:1008600011901FF011901EF011901DF011901CF0CE
:1008700011901BF011901AF0119019F0119018F0CE
:10088000AC0202030F0001F07C0380A014F082A0F0
:100890001CF076020A030C0001F07C03F0A012F0B9
:1008A000F2A01AF06E020A030A0001F07C03A0A075
:1008B00012F0A2A01AF0CA0203031E0001F07C038A
:1008C000B0A017F0B2A01FF00F0011900BF06C0257
:1008D00005030E0001F07C03A0A013F0B0A013F0FC
:1008E000A2A01BF0B2A01BF080A0E2F890A0E2F85A
:1008F000A0A0E2F880A0E6F890A0E6F8A0A0E6F8B4
:10090000000001F0140700001190E0F820001190A1
:10091000E4F880A0E2F892A0E2F800001190E1F87B
:1009200080A0E3F8D0A0E2F8B0A00BF0A0A00BF0FC
:1009300090A00BF080A00BF044020603160001F01B
:100940007C03E0A015F0F0A015F0E2A01DF0F2A0ED
:100950001DF080A0EAF890A0EAF8A0A0EAF880A034
:10096000EEF890A0EEF8A0A0EEF8010001F0140758
:1009700000001190E8F820001190ECF880A0EAF84F
:1009800092A0EAF800001190E9F880A0EBF8D0A05E
:10099000EAF8B0A00BF0A0A00BF090A00BF080A0A4
:1009A0000BF0AE020303140001F07C03C0A015F0AD
:1009B000D0A015F0C2A01DF0D2A01DF080A062F35F
:1009C00090A062F3B0A062F380A06AF390A06AF3F3
:1009D000B0A06AF3020001F014070000119060F368
:1009E0002000119068F380A062F392A062F30000EF
:1009F000119061F380A063F3A0A062F3B0A00BF0AC
:100A0000A0A00BF090A00BF080A00BF0B0A059F2CA
:100A1000B2A05BF2B2A05AF2B2A05DF2B2A05CF258
:100A2000F0A025F0F2A024F0F2A026F006020003C8
:100A3000080001F07C03F2A011F0F2A019F001F01F
:100A4000C603030011900FF001F068039C00000141
:100A50005EF000022003020001F0F00302E101F069
:0E0A6000A60000001190FFE701F086078EF25D
:020D7E0082A051
:100D800002F092A002F0B0A002F0A2A002F090A0A7
:0E0D900003F080A003F0F0A003F008ED1FFEBA
:0406AC0082A051F2E5
:1006B00092A051F2A2A051F280A053F280A052F277
:1006C00090A053F290A052F2A0A053F2A0A052F238
:1006D00082A055F282A054F292A055F292A054F258
:1006E000A2A055F2A2A054F282A050F292A050F221
:0806F000A2A050F200F0680323
:1005800082A059F292A059F2A2A059F2B2A059F257
:10059000C2A059F2D2A059F2E2A059F2F2A059F247
:1005A00080A05BF280A05AF290A05BF290A05AF279
:1005B000A0A05BF2A0A05AF2B0A05BF2B0A05AF2E9
:1005C000C0A05BF2C0A05AF2D0A05BF2D0A05AF259
:1005D000E0A05BF2E0A05AF2F0A05BF2F0A05AF2C9
:1005E00082A05DF282A05CF292A05DF292A05CF229
:1005F000A2A05DF2A2A05CF2B2A05DF2B2A05CF299
:10060000C2A05DF2C2A05CF2D2A05DF2D2A05CF208
:10061000E2A05DF2E2A05CF2F2A05DF2F2A05CF278
:1006200082A058F292A058F2A2A058F2B2A058F2BA
:10063000C2A058F2D2A058F2E2A058F2F2A058F2AA
:0406400000F068035B
:0E07A20082A061F292A061F2A2A061F2B2A068
:1007B00061F280A063F280A062F290A063F290A048
:1007C00062F2A0A063F2A0A062F2B0A063F2B0A0B7
:1007D00062F282A065F282A064F292A065F292A019
:1007E00064F2A2A065F2A2A064F2B2A065F2B2A087
:1007F00064F282A060F292A060F2A2A060F2B2A0C5
:0608000060F200F0680345
:0A0A7600CEF801F0820A01F08802B8
:020A80008EF2F4
:020A6E00010085
:060A70001190E2E71FFEF9
:0802880001001190E3E71FFEE5
:0402AC0000F0240139
:0603CA000F0011900BF082
:0203D0001FFE0E
:04056C00CEF80000C5
:1005700001F0140700001190E1F880A0E3F88EF27A
:0C064400CEF8010001F014070000119036
:08065000E9F880A0EBF88EF23E
:0203AE00CEF887
:1003B000020001F014070000119061F380A063F3C4
:0203C0008EF2BB
:020006001FFEDB
:020784001FFE56
:02000200600E8E
:04009C0080250000BB
:0600A00000020000000058
:02000000A2E775
:02000400620E8A
:100E600001CEFFCE00E000E200E400E60008E00969
:100E70008AF0579088E8E879FCC10078FAC15A0CEA
:100E8000A50D119C0EF081A00EF0FBC9119D0EF076
:100E9000000A0CF09200AF905290FF7002C8FF71F0
:100EA00020C9AF905292AF905294AF905096AF90AD
:100EB000509780E4F0C901A20BC801A409C86F9043
:100EC000029882E07F90239882E2FEE4F8C8E3CEA5
:100ED0006F90009881E07F90219881E2FFE4F8C84C
:100EE000DACE01F0B0020000119000F000F07607B9
:0202B0001FFE2F
:080092007800E4E71A00000009
:02009A00FFFF66
:105FE000FFFFFFFFFFFFFFFFFFFFFFFFFFFFFFFFC1
:105FF000FFFFFFFFFFFFFFFFFFFFFFFFFFFFFFFFB1
:0C071400007005C901700AC902700FC90D
:100720001FFE82A0E3F882A0E7F8D0A0E2F81FFE47
:1007300082A0EBF882A0EFF8D0A0EAF81FFE82A01A
:0C07400063F382A06BF3A0A062F31FFE25
:1003F000CEF85EFE1AAEF6E15EFC5EF80088007094
:100400000EC9017002C800F02205027002C800F097
:100410002A057FE01EF81EFCEAA11EFE8EF20000F7
:10042000800100E2FCB0FEB244BC6EF0C29002B2A9
:100430006EF001F04C0704E12EF0F8B0FAB2007053
:1004400000510052005302C87EE0E4CEFFE0FF629C
:10045000FF63F8B0FAB204D0037002C37DE0DACED5
:1004600005D0027002C37CE0D5CE06D0017002C375
:100470007BE0D0CE07D0017002C37AE0CBCE08D0AB
:10048000017002C379E0C6CE00E01390F4E7139048
:10049000F6E71390F8E71390FAE71190FCE782A0D3
:1004A00091F201F04205109092F2F920F7D080808D
:1004B0001A9077D1038110801030119092F2C2A06F
:1004C00092F2109093F28020F7D044BC05D02A908D
:1004D00004D1038106D04A90138007D15A91038139
:1004E00008D06A90138077D10381F7D1119193F2EC
:1004F00078D0119094F2109095F2F020F7D079D046
:100500000F2077D10381F7D1119195F282A096F255
:1005100092A096F2A2A096F2B2A096F200E000F0AD
:10052000140400E001E200F0240425F000E27B93D3
:100530007B927B917A903B933B923B913A9000F077
:02054000240491
:0C012400CEF85EFE1AAEF6E15EFC109014
:1001300092F20120FFD0007039C81290F6E71292B7
:10014000F8E727F01CC9109096F20820FED0007046
:1001500014C8129CF4E7C090119090F2C5F081E0B1
:100160001390F4E725F081E01390F8E780A091F276
:1001700000E01EFCEAA11EFE8EF27FE0FACE109097
:1001800091F20120FDD000700FC81290FAE70AC961
:10019000FAB000E01390FAE71092FCE71290F6E74D
:1001A0007ABCC3F001E0E5CE7EE0E3CE1290F6E744
:1001B0001292F8E727F02EC9109096F20720F9D096
:1001C0001090FCE779D113801190FCE782A096F2A1
:1001D00092A096F2A2A096F2129CF4E7109090F2F0
:1001E000C1901290F4E781E01390F4E71290F8E7E1
:1001F00081E01390F8E779D001A009C81290F6E7E2
:100200001292F8E727F006C900E000F07201010041
:1002100001F0B2021290FAE70AC9F6B000E01390BA
:10022000FAE71092FCE71290F6E776BCC3F001E023
:0402300000F0720167
:0A07860082A091F200E01390F4E766
:100790001390F6E71390F8E71390FAE71190FCE74F
:0207A0001FFE3A
:0E02B20000821090A2E723801190A2E71FFEA9
:0A00A60092A059F290A05AF290A027
:1000B0005BF292A05CF290A05DF280A059F280A069
:1000C0005AF282A05BF282A05CF282A05DF21FFE77
:0E05420092A059F292A05AF292A05BF292A0FF
:100550005CF292A05DF282A059F282A05AF282A0CF
:0C0560005BF282A05CF282A05DF21FFE44
:08008800000000000000000070
:0200900000006E
:04074C00CEF97EF074
:100750006EF85EFC1AACCBF012005498349001F0A5
:0C076000F00E35901EFC2EF83EF08EF3DB
:100EF000200D00E400E61B971B961B951B941B938B
:100F00001B921B911A9087F4A586B58705C188842A
:0E0F10009985A986B98700A0FF1DEDC81FFEB8
:00000001FF
