:1006C000CEF85EFE1AAEFAE16EF8008825FA44D044
:1006D000017005C37FE02EF8EAA11EFE8EF20078BD
:1006E00005C850000001FEB0640008CE017802C9C0
:1006F00000F0EA0714E0FEB090000101FCB0A5F0A4
:100700007EB201F0820C7CB227F002C2000034CE2F
:100710007EB005F22B912A9026F006F026F00A0210
:1007200029F005F2A5F001F0820C7CB227F002C29C
:10073000010022CE7EB005F206F026F02B912A9021
:100740000A0229F005F2A5F001F0820C7CB227F034
:1007500002C2020011CE7EB005F206F026F02B9107
:100760002A9026F00A0229F005F2A5F001F0820C89
:100770007CB227F03DC20300FBD000001190D6E709
:1007800000E01390D8E71390DAE71390DCE71390BA
:10079000DEE71390E0E71390E2E71190E4E71190B1
:1007A000E5E782A0A4F2D2A059F2D2A05AF2D0A0DA
:1007B0005BF2D2A05CF2D0A05DF2E2A059F2E2A01E
:1007C0005AF2E0A05BF2E2A05CF2E0A05DF2808071
:1007D0001A907BD12A91038144D04A901380013032
:1007E0001190A4F200E000F0D6067EE000F0D606FC
:0607F0007DE000F0D606DA
:060C9A00CEF85EFE1AAE6A
:100CA000FAE15EFC5EF41090A5F2FFD01090E5E74B
:100CB0000EC901701FC9027002C800F0C40D037094
:100CC00002C800F0640E047002C800F0B80E129062
:100CD000E2E70AC9FCB000E01390E2E71092E4E713
:100CE0001290E0E77CB443F001E01EF41EFCEAA1A0
:100CF0001EFE8EF27FD00420047018C800001190F0
:100D0000E5E702001190E4E700001190A3F21290D1
:100D1000E2E70AC9FCB000E01390E2E71092E4E7D2
:100D20001290E0E77CB443F001E0DFCE7FD00220F8
:100D3000027008C800001190E5E701001190E4E797
:100D400002003BCE1290DAE713C902001190E5E7EA
:100D5000129CD8E7C0901190A2F2C5F081E01390E8
:100D6000D8E71290DAE7FFE01390DAE7010025CE2A
:100D70001090D6E710C904001190E5E70100FBD000
:100D80001290DEE7FFE01292E0E727F002C8810050
:100D9000FBD07BD012CE03001190E5E7129CDCE77C
:100DA000C0901190A2F2C5F081E01390DCE71290A0
:100DB000E0E781E01390E0E701001190A3F200E08A
:100DC00000F0EA0C7FD0022002700BC800001190E6
:100DD000E5E701001190E4E702001190A3F200F0B2
:100DE0005E0E1290DAE712C9129CD8E7C0901190FB
:100DF000A2F2C5F081E01390D8E71290DAE7FFE0A5
:100E00001390DAE701001190A3F229CE1290DEE7E9
:100E100007C800001190E5E702001190A3F21FCE71
:100E20001090D6E708C901001190E5E780A0A1F273
:100E3000A0A0A3F214CE03001190E5E7129CDCE71A
:100E4000C0901190A2F2C5F081E01390DCE71290FF
:100E5000E0E781E01390E0E701001190A3F200E0E9
:100E600000F0EA0C7FD00220027008C80000119048
:100E7000E5E701001190E4E7020019CE1290DEE7E9
:100E80001292E0E727F00FC9129CDCE7C0901190A6
:100E9000A2F2C5F081E01390DCE725F081E0139029
:100EA000E0E7010004CE00001190E5E70200119098
:0C0EB000A3F200E000F0EA0C129CDCE76A
:040EBC001090A0F200
:100EC000C1901290DCE781E01390DCE71290E0E73C
:100ED00081E01390E0E71290DEE71292E0E727F05E
:100EE0000BC90100FBD01290DEE7FFE027F002C83B
:100EF0008100FBD07BD004CE00001190E5E702001A
:0A0F00001190A3F200E000F0EA0CEB
:08007800000000000000000080
:08008000000000000000000078
:02042E0008EDD7
:020430001FFEAD
:04042A00F7EB1FFECF
:0C03E4006EF8008825FA1F7003C17FE04E
:1003F0002EF81FFE25F206C98080000106F009AA2A
:1004000096E707CE8080000106F05602040309A299
:0604100096E700E0EDCECE
:02000A000FFEE7
:020456001FFE87
:06090A00000106F008A048
:0409100096E702F074
:0E105200CEFF6EF0109000F04EF0000001F0A6
:0C1060000A090EF0119000F02EF08EFF37
:060F7A00CEF96EF01090AC
:100F800000F04EF0010001F00A090EF0119000F09F
:060F90002EF08EF90FFEA9
:0E024200CEF96EF0109000F04EF0020001F0C8
:0E0250000A090EF0119000F02EF08EF90FFE4C
:02025E00CEF9D7
:100260006EF0109000F04EF0030001F00A090EF05D
:0A027000119000F02EF08EF90FFE41
:0E0F4200CEF96EF0109000F04EF0040001F0B9
:0E0F50000A090EF0119000F02EF08EF90FFE3F
:0600FA00CEF96EF010903B
:1001000000F04EF0050001F00A090EF0119000F029
:060110002EF08EF90FFE37
:0A011600CEF96EF0109000F04EF0EC
:10012000060001F00A090EF0119000F02EF08EF991
:020130000FFEC0
:060F0A00CEF96EF010901C
:100F100000F04EF0070001F00A090EF0119000F009
:060F20002EF08EF90FFE19
:0A0F2600CEF96EF0109000F04EF0CE
:100F3000080001F00A090EF0119000F02EF08EF971
:020F40000FFEA2
:1010C000CEF96EF0109000F04EF0090001F00A0920
:0C10D0000EF0119000F02EF08EF90FFED3
:06101A00CEF96EF010900B
:1010200000F04EF00A0001F00A090EF0119000F0F5
:061030002EF08EF90FFE08
:0C10A400CEF96EF0109000F04EF00B0042
:1010B00001F00A090EF0119000F02EF08EF90FFEEB
:06119A00CEF96EF010908A
:1011A00000F04EF00C0001F00A090EF0119000F072
:0611B0002EF08EF90FFE87
:0C030400CEF96EF0109000F04EF00D00ED
:1003100001F00A090EF0119000F02EF08EF90FFE98
:10032000CEF96EF0109000F04EF00E0001F00A09C8
:0C0330000EF0119000F02EF08EF90FFE80
:0C037400CEF96EF0109000F04EF00F007B
:1003800001F00A090EF0119000F02EF08EF90FFE28
:10039000CEF96EF0109000F04EF0100001F00A0956
:0C03A0000EF0119000F02EF08EF90FFE10
:02029E00CEF997
:1002A0006EF0109000F04EF0110001F00A090EF00F
:0A02B000119000F02EF08EF90FFE01
:06027A00CEF96EF01090B9
:1002800000F04EF0120001F00A090EF0119000F09B
:060290002EF08EF90FFEB6
:04033C00CEF96EF098
:10034000109000F04EF0130001F00A090EF0119029
:0803500000F02EF08EF90FFE03
:04106C00CEF96EF05B
:10107000109000F04EF0140001F00A090EF01190EB
:0810800000F02EF08EF90FFEC6
:08035800CEF96EF0109000F0E8
:100360004EF0150001F00A090EF0119000F02EF089
:040370008EF90FFEF5
:08108800CEF96EF0109000F0AB
:101090004EF0160001F00A090EF0119000F02EF04B
:0410A0008EF90FFEB8
:0A089600CEF96EF0109000F04EF065
:1008A000170001F00A090EF0119000F02EF08EF9F9
:0208B0000FFE39
:0A07F600CEF96EF0109000F04EF006
:10080000180001F00A090EF0119000F02EF08EF998
:020810000FFED9
:0E081200CEF96EF0109000F04EF0190001F0DB
:0E0820000A090EF0119000F02EF08EF90FFE76
:02082E00CEF901
:100830006EF0109000F04EF01A0001F00A090EF070
:0A084000119000F02EF08EF90FFE6B
:0A103600CEF96EF0109000F04EF0BD
:101040001B0001F00A090EF0119000F02EF08EF94D
:021050000FFE91
:020F5E00CEF9CA
:100F60006EF0109000F04EF01C0001F00A090EF037
:0A0F7000119000F02EF08EF90FFE34
:0200DE00CEF959
:1000E0006EF0109000F04EF01D0001F00A090EF0C5
:0A00F000119000F02EF08EF90FFEC3
:06043A00CEF96EF01090F7
:1004400000F04EF01E0001F00A090EF0119000F0CD
:060450002EF08EF90FFEF4
:02000800521094
:04000C007A0F0A005D
:1000100042025E02420F0A00FA0016010A0F260F82
:10002000C0100A001A100A000A000A00A4109A114F
:100030000A000A00040320030A000A000A000A005A
:10004000740390030A000A000A000A009E027A0262
:100050000A000A000A000A003C036C1058038810CA
:100060009608F60712082E080A0036100A005E0FDE
:08007000DE000A000A003A0458
:0202BE00CEF878
:1002C00000001190E6E71190E7E700E01390E8E7FF
:1002D0001390EAE71390ECE71390EEE71390F0E742
:1002E0001390F2E74EF0F4020103010001F0C006A2
:0402F00002E18EF2A7
:0A0F96005EFE1AAE5EF805F8129038
:100FA000F2E705C97FE01EF8EAA11EFE1FFE1199B7
:100FB000E6E71198E7E71392E8E742B01390EAE713
:100FC00000E01390ECE785F01F2100022003088267
:100FD00019831392EEE725F01292EAE727F003C097
:100FE0001290EEE701CE25F01390EEE701E01390AA
:0A0FF000F0E71390F2E700E0D6CE20
:0C09140001F0120A01F0BE0201E05EF0EA
:10092000FF02000300E001F0960F02E181A050F207
:1009300003C982A050F202CE80A050F201F0D00391
:10094000E800FD0101F0AC03E800FD0101F0AC039B
:02095000EDCEEA
:1003D0005A0011900EF081A00EF0FAC9A5001190FC
:0403E0000EF01FFEFE
:0E0A1200CEF880A02AF0A2A02AF0B0A02AF010
:100A2000E0A02AF0F2A02AF0000011902CF0119022
:100A30002EF011902FF001F04A0801F0E80501F0C6
:100A40006E0901F0FA0F01F02A040000119017F06E
:100A5000119016F0119015F0119014F0119013F000
:100A6000119012F0119011F0119010F011901FF0F0
:100A700011901EF011901DF011901CF011901BF0C0
:100A800011901AF0119019F0119018F0BA020203A7
:100A90000F0001F0E40380A014F082A01CF08E028D
:100AA0000C030C0001F0E403F0A012F0F2A01AF025
:100AB0007A020C030A0001F0E403A0A012F0A2A045
:100AC0001AF0320204031E0001F0E403B0A017F094
:100AD000B2A01FF00F0011900BF0D40205030E001E
:100AE00001F0E403A0A013F0B0A013F0A2A01BF04B
:100AF000B2A01BF080A0E2F890A0E2F8A0A0E2F87B
:100B000080A0E6F890A0E6F8A0A0E6F8000001F0CA
:100B1000B20800001190E0F820001190E4F880A0E5
:100B2000E2F892A0E2F800001190E1F880A0E3F86A
:100B3000D0A0E2F8B0A00BF0A0A00BF090A00BF0BA
:100B400080A00BF0AC020603160001F0E403E0A065
:100B500015F0F0A015F0E2A01DF0F2A01DF080A0AD
:100B6000EAF890A0EAF8A0A0EAF880A0EEF890A039
:100B7000EEF8A0A0EEF8010001F0B208000011901C
:100B8000E8F820001190ECF880A0EAF892A0EAF8CA
:100B900000001190E9F880A0EBF8D0A0EAF8B0A02E
:100BA0000BF0A0A00BF090A00BF080A00BF01602B1
:100BB0000403140001F0E403C0A015F0D0A015F068
:100BC000C2A01DF0D2A01DF080A062F390A062F33D
:100BD000B0A062F380A06AF390A06AF3B0A06AF3B9
:100BE000020001F0B2080000119060F320001190A3
:100BF00068F380A062F392A062F30000119061F3A9
:100C000080A063F3A0A062F3B0A00BF0A0A00BF053
:100C100090A00BF080A00BF0B0A059F2B2A05BF254
:100C2000B2A05AF2B2A05DF2B2A05CF2F0A025F040
:100C3000F2A024F0F2A026F006020003080001F062
:100C4000E403F2A011F0F2A019F001F02E04030069
:100C500011900FF001F0D003AA0000015EF0000235
:100C60002003020001F0580402E101F0B40000008A
:0A0C70001190FFE701F052098EF227
:060FFA0082A002F092A0AB
:1010000002F0B0A002F0A2A002F090A003F080A035
:0A10100003F0F0A003F008ED1FFE4E
:06084A0082A051F292A011
:1008500051F2A2A051F280A053F280A052F290A0D7
:1008600053F290A052F2A0A053F2A0A052F282A0A4
:1008700055F282A054F292A055F292A054F2A2A096
:1008800055F2A2A054F282A050F292A050F2A2A07F
:0608900050F200F0D0035D
:0805E80082A059F292A059F221
:1005F000A2A059F2B2A059F2C2A059F2D2A059F267
:10060000E2A059F2F2A059F280A05BF280A05AF267
:1006100090A05BF290A05AF2A0A05BF2A0A05AF2C8
:10062000B0A05BF2B0A05AF2C0A05BF2C0A05AF238
:10063000D0A05BF2D0A05AF2E0A05BF2E0A05AF2A8
:10064000F0A05BF2F0A05AF282A05DF282A05CF210
:1006500092A05DF292A05CF2A2A05DF2A2A05CF278
:10066000B2A05DF2B2A05CF2C2A05DF2C2A05CF2E8
:10067000D2A05DF2D2A05CF2E2A05DF2E2A05CF258
:10068000F2A05DF2F2A05CF282A058F292A058F2C1
:10069000A2A058F2B2A058F2C2A058F2D2A058F2CA
:0C06A000E2A058F2F2A058F200F0D003E3
:02096E0082A065
:1009700061F292A061F2A2A061F2B2A061F280A045
:1009800063F280A062F290A063F290A062F2A0A055
:1009900063F2A0A062F2B0A063F2B0A062F282A003
:1009A00065F282A064F292A065F292A064F2A2A025
:1009B00065F2A2A064F2B2A065F2B2A064F282A0D5
:1009C00060F292A060F2A2A060F2B2A060F200F029
:0209D000D00352
:020C8E00CEF89E
:0A0C900001F09A0C01F096028EF2BA
:060C7A0001001190D4E717
:020C80001FFE55
:0802960001001190D5E71FFEE5
:0402BA0000F032011D
:080432000F0011900BF01FFEFA
:0C05D400CEF8000001F0B2080000119009
:0805E000E1F880A0E3F88EF2BF
:0406AC00CEF8010083
:1006B00001F0B20800001190E9F880A0EBF88EF28A
:0A041600CEF8020001F0B208000069
:0A042000119061F380A063F38EF2E7
:020006001FFEDB
:0403AC005EFE1AAE29
:1003B000FCE15EF805F800E0FEB0FCB802CE81E09A
:1003C000FEB07CB227F0FBC11EF8EAA11EFE1FFEA4
:02000200DC1010
:08008800000000000000000070
:060090000000000000006A
:0600AA00802500000002A9
:0400B000000000004C
:0200000094E783
:02000400DE100C
:0410DC0001CEFFCE74
:1010E00000E000E200E400E60008E0098AF0579022
:1010F00088E8E879FCC10078FAC15A0CA50D119C6A
:101100000EF081A00EF0FBC9119D0EF0000A0CF04C
:10111000A000AF905290FF7002C8FF7120C9AF903D
:101120005292AF905294AF905096AF90509780E407
:10113000F0C901A20BC801A409C86F90029882E00F
:101140007F90239882E2FEE4F8C8E3CE6F90009887
:1011500081E07F90219881E2FFE4F8C8DACE01F0C7
:0C116000F4020000119000F000F01409EF
:0202F4001FFEEB
:0800A0007800D6E728000000FB
:0200A800FFFF58
:105FE000FFFFFFFFFFFFFFFFFFFFFFFFFFFFFFFFC1
:105FF000FFFFFFFFFFFFFFFFFFFFFFFFFFFFFFFFB1
:0E08B200007005C901700AC902700FC91FFE4F
:1008C00082A0E3F882A0E7F8D0A0E2F81FFE82A0A1
:1008D000EBF882A0EFF8D0A0EAF81FFE82A063F345
:0A08E00082A06BF3A0A062F31FFEDC
:08045800CEF85EFE1AAEF6E1DB
:100460005EFC5EF8008800700EC9017002C800F0E2
:100470008A05027002C800F092057FE01EF81EFC9B
:10048000EAA11EFE8EF20000800100E2FCB0FEB286
:1004900044BC6EF0C29002B26EF001F0EA0804E1D2
:1004A0002EF0F8B0FAB2007000510052005302C8AA
:1004B0007EE0E4CEFFE0FF62FF63F8B0FAB204D062
:1004C000037002C37DE0DACE05D0027002C37CE087
:1004D000D5CE06D0017002C37BE0D0CE07D001702C
:1004E00002C37AE0CBCE08D0017002C379E0C6CE59
:1004F00000E01390F4E71390F6E71390F8E71390F9
:10050000FAE71190FCE782A091F201F0AA051090A1
:1005100092F2F920F7D080801A9077D10381108071
:100520001030119092F2C2A092F2109093F28020BB
:10053000F7D044BC05D02A9004D1038106D04A905C
:10054000138007D15A91038108D06A90138077D124
:100550000381F7D1119193F278D0119094F2109019
:1005600095F2F020F7D079D00F2077D10381F7D121
:10057000119195F282A096F292A096F2A2A096F224
:10058000B2A096F200E000F07C0400E001E200F08E
:100590008C0425F000E27B937B927B917A903B93D5
:0A05A0003B923B913A9000F08C046E
:0E013200CEF85EFE1AAEF6E15EFC109092F280
:100140000120FFD0007039C81290F6E71292F8E74C
:1001500027F01CC9109096F20820FED0007014C839
:10016000129CF4E7C090119090F2C5F081E01390DA
:10017000F4E725F081E01390F8E780A091F200E029
:100180001EFCEAA11EFE8EF27FE0FACE109091F2E4
:100190000120FDD000700FC81290FAE70AC9FAB02A
:1001A00000E01390FAE71092FCE71290F6E77ABCB1
:1001B000C3F001E0E5CE7EE0E3CE1290F6E71292C6
:1001C000F8E727F02EC9109096F20720F9D010908A
:1001D000FCE779D113801190FCE782A096F292A0FF
:1001E00096F2A2A096F2129CF4E7109090F2C190C1
:1001F0001290F4E781E01390F4E71290F8E781E0C1
:100200001390F8E779D001A009C81290F6E712928E
:10021000F8E727F006C900E000F08001010001F0D6
:10022000F6021290FAE70AC9F6B000E01390FAE776
:100230001092FCE71290F6E776BCC3F001E000F004
:0202400080013B
:0E09520082A091F200E01390F4E71390F6E714
:0E0960001390F8E71390FAE71190FCE71FFEE2
:0A02F6000082109094E7238011901D
:0403000094E71FFE61
:0C00B40092A059F290A05AF290A05BF2CA
:1000C00092A05CF290A05DF280A059F280A05AF25A
:0E00D00082A05BF282A05CF282A05DF21FFEB5
:0605AA0092A059F292A09C
:1005B0005AF292A05BF292A05CF292A05DF282A04D
:1005C00059F282A05AF282A05BF282A05CF282A071
:0405D0005DF21FFEBB
:0A0096000000000000000000000060
:0608EA00CEF97EF06EF86D
:1008F0005EFC1AACCBF012005498349001F06C11ED
:0A09000035901EFC2EF83EF08EF339
:04116C00200D00E46E
:1011700000E61B971B961B951B941B931B921B91C0
:101180001A9087F4A586B58705C188849985A986B4
:0A119000B98700A0FF1DEDC81FFE87
:0C0C8200CEF86EF801F0D2092EF88EF2C8
:0E09D200007302C829F01BCE6EF405F825FA5A
:1009E0001D981C991D9A1C9B007BFAC8A9F880844D
:1009F000208844F8308644F6618907F803C32888C4
:100A00003989FF148880998105F2408000012EF415
:020A10001FFEC7
:00000001FF
